{
  "contractName": "SafeVote",
  "abi": [
    {
      "inputs": [
        {
          "internalType": "string",
          "name": "",
          "type": "string"
        }
      ],
      "name": "candidateIdIndMap",
      "outputs": [
        {
          "internalType": "uint256",
          "name": "",
          "type": "uint256"
        }
      ],
      "stateMutability": "view",
      "type": "function",
      "constant": true
    },
    {
      "inputs": [
        {
          "internalType": "uint256",
          "name": "",
          "type": "uint256"
        }
      ],
      "name": "candidateList",
      "outputs": [
        {
          "internalType": "string",
          "name": "id",
          "type": "string"
        },
        {
          "internalType": "string",
          "name": "name",
          "type": "string"
        },
        {
          "internalType": "string",
          "name": "age",
          "type": "string"
        },
        {
          "internalType": "string",
          "name": "partyName",
          "type": "string"
        },
        {
          "internalType": "string",
          "name": "district",
          "type": "string"
        },
        {
          "internalType": "string",
          "name": "state",
          "type": "string"
        },
        {
          "internalType": "uint256",
          "name": "voteCount",
          "type": "uint256"
        }
      ],
      "stateMutability": "view",
      "type": "function",
      "constant": true
    },
    {
      "inputs": [
        {
          "internalType": "string",
          "name": "",
          "type": "string"
        }
      ],
      "name": "candidateRegister",
      "outputs": [
        {
          "internalType": "bool",
          "name": "",
          "type": "bool"
        }
      ],
      "stateMutability": "view",
      "type": "function",
      "constant": true
    },
    {
      "inputs": [],
      "name": "chief",
      "outputs": [
        {
          "internalType": "address",
          "name": "",
          "type": "address"
        }
      ],
      "stateMutability": "view",
      "type": "function",
      "constant": true
    },
    {
      "inputs": [],
      "name": "chiefAadhaar",
      "outputs": [
        {
          "internalType": "string",
          "name": "",
          "type": "string"
        }
      ],
      "stateMutability": "view",
      "type": "function",
      "constant": true
    },
    {
      "inputs": [],
      "name": "chiefID",
      "outputs": [
        {
          "internalType": "string",
          "name": "",
          "type": "string"
        }
      ],
      "stateMutability": "view",
      "type": "function",
      "constant": true
    },
    {
      "inputs": [
        {
          "internalType": "string",
          "name": "",
          "type": "string"
        }
      ],
      "name": "registerAadhaar",
      "outputs": [
        {
          "internalType": "bool",
          "name": "",
          "type": "bool"
        }
      ],
      "stateMutability": "view",
      "type": "function",
      "constant": true
    },
    {
      "inputs": [
        {
          "internalType": "string",
          "name": "",
          "type": "string"
        }
      ],
      "name": "registerID",
      "outputs": [
        {
          "internalType": "bool",
          "name": "",
          "type": "bool"
        }
      ],
      "stateMutability": "view",
      "type": "function",
      "constant": true
    },
    {
      "inputs": [],
      "name": "resultViewOpen",
      "outputs": [
        {
          "internalType": "bool",
          "name": "",
          "type": "bool"
        }
      ],
      "stateMutability": "view",
      "type": "function",
      "constant": true
    },
    {
      "inputs": [
        {
          "internalType": "string",
          "name": "",
          "type": "string"
        }
      ],
      "name": "voterAddressMap",
      "outputs": [
        {
          "internalType": "address",
          "name": "",
          "type": "address"
        }
      ],
      "stateMutability": "view",
      "type": "function",
      "constant": true
    },
    {
      "inputs": [
        {
          "internalType": "address",
          "name": "",
          "type": "address"
        }
      ],
      "name": "voterDetailsMap",
      "outputs": [
        {
          "internalType": "bool",
          "name": "isRegistered",
          "type": "bool"
        },
        {
          "internalType": "bool",
          "name": "hasVoted",
          "type": "bool"
        },
        {
          "internalType": "string",
          "name": "district",
          "type": "string"
        },
        {
          "internalType": "string",
          "name": "state",
          "type": "string"
        },
        {
          "internalType": "string",
          "name": "hash",
          "type": "string"
        }
      ],
      "stateMutability": "view",
      "type": "function",
      "constant": true
    },
    {
      "inputs": [],
      "name": "votingOpen",
      "outputs": [
        {
          "internalType": "bool",
          "name": "",
          "type": "bool"
        }
      ],
      "stateMutability": "view",
      "type": "function",
      "constant": true
    },
    {
      "inputs": [
        {
          "internalType": "string",
          "name": "aadhaar",
          "type": "string"
        },
        {
          "internalType": "string",
          "name": "id",
          "type": "string"
        }
      ],
      "name": "setChief",
      "outputs": [],
      "stateMutability": "nonpayable",
      "type": "function"
    },
    {
      "inputs": [
        {
          "internalType": "string",
          "name": "aadhaar",
          "type": "string"
        },
        {
          "internalType": "string",
          "name": "id",
          "type": "string"
        }
      ],
      "name": "updateDetails",
      "outputs": [],
      "stateMutability": "nonpayable",
      "type": "function"
    },
    {
      "inputs": [],
      "name": "setCandidateRegistration",
      "outputs": [],
      "stateMutability": "nonpayable",
      "type": "function"
    },
    {
      "inputs": [],
      "name": "setVoterRegistration",
      "outputs": [],
      "stateMutability": "nonpayable",
      "type": "function"
    },
    {
      "inputs": [],
      "name": "setVoting",
      "outputs": [],
      "stateMutability": "nonpayable",
      "type": "function"
    },
    {
      "inputs": [],
      "name": "setResultView",
      "outputs": [],
      "stateMutability": "nonpayable",
      "type": "function"
    },
    {
      "inputs": [
        {
          "internalType": "string",
          "name": "id",
          "type": "string"
        },
        {
          "internalType": "string",
          "name": "name",
          "type": "string"
        },
        {
          "internalType": "string",
          "name": "age",
          "type": "string"
        },
        {
          "internalType": "string",
          "name": "partyName",
          "type": "string"
        },
        {
          "internalType": "string",
          "name": "district",
          "type": "string"
        },
        {
          "internalType": "string",
          "name": "state",
          "type": "string"
        }
      ],
      "name": "registerCandidate",
      "outputs": [],
      "stateMutability": "nonpayable",
      "type": "function"
    },
    {
      "inputs": [
        {
          "internalType": "string",
          "name": "hash",
          "type": "string"
        },
        {
          "internalType": "string",
          "name": "district",
          "type": "string"
        },
        {
          "internalType": "string",
          "name": "state",
          "type": "string"
        },
        {
          "internalType": "string",
          "name": "aadhaar",
          "type": "string"
        },
        {
          "internalType": "string",
          "name": "id",
          "type": "string"
        }
      ],
      "name": "registerVoter",
      "outputs": [],
      "stateMutability": "nonpayable",
      "type": "function"
    },
    {
      "inputs": [
        {
          "internalType": "string",
          "name": "hash",
          "type": "string"
        }
      ],
      "name": "checkRegister",
      "outputs": [
        {
          "internalType": "string",
          "name": "",
          "type": "string"
        }
      ],
      "stateMutability": "view",
      "type": "function",
      "constant": true
    },
    {
      "inputs": [
        {
          "internalType": "string",
          "name": "id",
          "type": "string"
        }
      ],
      "name": "vote",
      "outputs": [],
      "stateMutability": "nonpayable",
      "type": "function"
    },
    {
      "inputs": [],
      "name": "getCandidateList",
      "outputs": [
        {
          "components": [
            {
              "internalType": "string",
              "name": "id",
              "type": "string"
            },
            {
              "internalType": "string",
              "name": "name",
              "type": "string"
            },
            {
              "internalType": "string",
              "name": "age",
              "type": "string"
            },
            {
              "internalType": "string",
              "name": "partyName",
              "type": "string"
            },
            {
              "internalType": "string",
              "name": "district",
              "type": "string"
            },
            {
              "internalType": "string",
              "name": "state",
              "type": "string"
            },
            {
              "internalType": "uint256",
              "name": "voteCount",
              "type": "uint256"
            }
          ],
          "internalType": "struct SafeVote.Candidate[]",
          "name": "",
          "type": "tuple[]"
        }
      ],
      "stateMutability": "view",
      "type": "function",
      "constant": true
    }
  ],
  "bytecode": "0x60806040526040518060400160405280600c81526020017f38333036373633383039303600000000000000000000000000000000000000008152506002908051906020019062000051929190620000b4565b506040518060400160405280600a81526020017f524a5a3236303735333900000000000000000000000000000000000000000000815250600390805190602001906200009f929190620000b4565b50348015620000ad57600080fd5b50620001c9565b828054620000c29062000164565b90600052602060002090601f016020900481019282620000e6576000855562000132565b82601f106200010157805160ff191683800117855562000132565b8280016001018555821562000132579182015b828111156200013157825182559160200191906001019062000114565b5b50905062000141919062000145565b5090565b5b808211156200016057600081600090555060010162000146565b5090565b600060028204905060018216806200017d57607f821691505b602082108114156200019457620001936200019a565b5b50919050565b7f4e487b7100000000000000000000000000000000000000000000000000000000600052602260045260246000fd5b6137ad80620001d96000396000f3fe608060405234801561001057600080fd5b506004361061014d5760003560e01c8063a8476662116100c3578063d9947a971161007c578063d9947a97146103a8578063f1a68302146103b2578063f3f86668146103ce578063fc36e15b146103ec578063fdbc400614610408578063ffd864d3146104265761014d565b8063a8476662146102ce578063a95824b4146102fe578063ac1bc7e81461031c578063b13c744b14610338578063b8c35a9f1461036e578063c4ac87911461039e5761014d565b80635ed5d2c3116101155780635ed5d2c3146101fa578063637ab3d01461021657806369355fc7146102465780637baaeeaf14610276578063932e58b6146102a6578063a44abb36146102b05761014d565b8063112ebde1146101525780633d92b93814610182578063426103131461018c5780634923e21b146101aa5780635bc04c95146101c6575b600080fd5b61016c60048036038101906101679190612646565b610444565b60405161017991906130f3565b60405180910390f35b61018a61047a565b005b61019461060a565b6040516101a19190613176565b60405180910390f35b6101c460048036038101906101bf9190612687565b610698565b005b6101e060048036038101906101db919061261d565b610830565b6040516101f195949392919061310e565b60405180910390f35b610214600480360381019061020f91906126f3565b610a18565b005b610230600480360381019061022b9190612646565b610e57565b60405161023d91906130f3565b60405180910390f35b610260600480360381019061025b9190612646565b610e8d565b60405161026d9190613431565b60405180910390f35b610290600480360381019061028b9190612646565b610ebb565b60405161029d91906130b6565b60405180910390f35b6102ae610f04565b005b6102b8611094565b6040516102c59190613176565b60405180910390f35b6102e860048036038101906102e39190612646565b611122565b6040516102f59190613176565b60405180910390f35b6103066112a3565b60405161031391906130f3565b60405180910390f35b61033660048036038101906103319190612687565b6112b6565b005b610352600480360381019061034d91906128fb565b61144c565b6040516103659796959493929190613198565b60405180910390f35b61038860048036038101906103839190612646565b6117ce565b60405161039591906130f3565b60405180910390f35b6103a6611804565b005b6103b0611994565b005b6103cc60048036038101906103c791906127e2565b611b24565b005b6103d6611e8d565b6040516103e391906130f3565b60405180910390f35b61040660048036038101906104019190612646565b611ea0565b005b6104106120ed565b60405161041d91906130d1565b60405180910390f35b61042e6124c2565b60405161043b91906130b6565b60405180910390f35b6009818051602081018201805184825260208301602085012081835280955050505050506000915054906101000a900460ff1681565b600073ffffffffffffffffffffffffffffffffffffffff16600660009054906101000a900473ffffffffffffffffffffffffffffffffffffffff1673ffffffffffffffffffffffffffffffffffffffff16141561050c576040517f08c379a000000000000000000000000000000000000000000000000000000000815260040161050390613351565b60405180910390fd5b600660009054906101000a900473ffffffffffffffffffffffffffffffffffffffff1673ffffffffffffffffffffffffffffffffffffffff163373ffffffffffffffffffffffffffffffffffffffff161461059c576040517f08c379a0000000000000000000000000000000000000000000000000000000008152600401610593906133b1565b60405180910390fd5b6000600660146101000a81548160ff0219169083151502179055506001600660156101000a81548160ff0219169083151502179055506000600660166101000a81548160ff0219169083151502179055506000600660176101000a81548160ff021916908315150217905550565b6002805461061790613652565b80601f016020809104026020016040519081016040528092919081815260200182805461064390613652565b80156106905780601f1061066557610100808354040283529160200191610690565b820191906000526020600020905b81548152906001019060200180831161067357829003601f168201915b505050505081565b8160026040516106a89190613088565b60405180910390208180519060200120146106f8576040517f08c379a00000000000000000000000000000000000000000000000000000000081526004016106ef90613391565b60405180910390fd5b8160036040516107089190613088565b6040518091039020818051906020012014610758576040517f08c379a000000000000000000000000000000000000000000000000000000000815260040161074f90613311565b60405180910390fd5b600073ffffffffffffffffffffffffffffffffffffffff16600660009054906101000a900473ffffffffffffffffffffffffffffffffffffffff1673ffffffffffffffffffffffffffffffffffffffff16146107e9576040517f08c379a00000000000000000000000000000000000000000000000000000000081526004016107e090613231565b60405180910390fd5b33600660006101000a81548173ffffffffffffffffffffffffffffffffffffffff021916908373ffffffffffffffffffffffffffffffffffffffff16021790555050505050565b60086020528060005260406000206000915090508060000160009054906101000a900460ff16908060000160019054906101000a900460ff169080600101805461087990613652565b80601f01602080910402602001604051908101604052809291908181526020018280546108a590613652565b80156108f25780601f106108c7576101008083540402835291602001916108f2565b820191906000526020600020905b8154815290600101906020018083116108d557829003601f168201915b50505050509080600201805461090790613652565b80601f016020809104026020016040519081016040528092919081815260200182805461093390613652565b80156109805780601f1061095557610100808354040283529160200191610980565b820191906000526020600020905b81548152906001019060200180831161096357829003601f168201915b50505050509080600301805461099590613652565b80601f01602080910402602001604051908101604052809291908181526020018280546109c190613652565b8015610a0e5780601f106109e357610100808354040283529160200191610a0e565b820191906000526020600020905b8154815290600101906020018083116109f157829003601f168201915b5050505050905085565b600660159054906101000a900460ff16610a67576040517f08c379a0000000000000000000000000000000000000000000000000000000008152600401610a5e906132f1565b60405180910390fd5b81600081604051610a78919061309f565b908152602001604051809103902060009054906101000a900460ff1615610ad4576040517f08c379a0000000000000000000000000000000000000000000000000000000008152600401610acb90613371565b60405180910390fd5b81600181604051610ae5919061309f565b908152602001604051809103902060009054906101000a900460ff1615610b41576040517f08c379a0000000000000000000000000000000000000000000000000000000008152600401610b38906132b1565b60405180910390fd5b600073ffffffffffffffffffffffffffffffffffffffff16600788604051610b69919061309f565b908152602001604051809103902060009054906101000a900473ffffffffffffffffffffffffffffffffffffffff1673ffffffffffffffffffffffffffffffffffffffff1614610bee576040517f08c379a0000000000000000000000000000000000000000000000000000000008152600401610be590613271565b60405180910390fd5b600860003373ffffffffffffffffffffffffffffffffffffffff1673ffffffffffffffffffffffffffffffffffffffff16815260200190815260200160002060000160009054906101000a900460ff1615610c7e576040517f08c379a0000000000000000000000000000000000000000000000000000000008152600401610c7590613411565b60405180910390fd5b6001600085604051610c90919061309f565b908152602001604051809103902060006101000a81548160ff02191690831515021790555060018084604051610cc6919061309f565b908152602001604051809103902060006101000a81548160ff02191690831515021790555033600788604051610cfc919061309f565b908152602001604051809103902060006101000a81548173ffffffffffffffffffffffffffffffffffffffff021916908373ffffffffffffffffffffffffffffffffffffffff1602179055506040518060a0016040528060011515815260200160001515815260200187815260200186815260200188815250600860003373ffffffffffffffffffffffffffffffffffffffff1673ffffffffffffffffffffffffffffffffffffffff16815260200190815260200160002060008201518160000160006101000a81548160ff02191690831515021790555060208201518160000160016101000a81548160ff0219169083151502179055506040820151816001019080519060200190610e109291906124e8565b506060820151816002019080519060200190610e2d9291906124e8565b506080820151816003019080519060200190610e4a9291906124e8565b5090505050505050505050565b6001818051602081018201805184825260208301602085012081835280955050505050506000915054906101000a900460ff1681565b600a818051602081018201805184825260208301602085012081835280955050505050506000915090505481565b6007818051602081018201805184825260208301602085012081835280955050505050506000915054906101000a900473ffffffffffffffffffffffffffffffffffffffff1681565b600073ffffffffffffffffffffffffffffffffffffffff16600660009054906101000a900473ffffffffffffffffffffffffffffffffffffffff1673ffffffffffffffffffffffffffffffffffffffff161415610f96576040517f08c379a0000000000000000000000000000000000000000000000000000000008152600401610f8d90613351565b60405180910390fd5b600660009054906101000a900473ffffffffffffffffffffffffffffffffffffffff1673ffffffffffffffffffffffffffffffffffffffff163373ffffffffffffffffffffffffffffffffffffffff1614611026576040517f08c379a000000000000000000000000000000000000000000000000000000000815260040161101d906133b1565b60405180910390fd5b6000600660146101000a81548160ff0219169083151502179055506000600660156101000a81548160ff0219169083151502179055506001600660166101000a81548160ff0219169083151502179055506000600660176101000a81548160ff021916908315150217905550565b600380546110a190613652565b80601f01602080910402602001604051908101604052809291908181526020018280546110cd90613652565b801561111a5780601f106110ef5761010080835404028352916020019161111a565b820191906000526020600020905b8154815290600101906020018083116110fd57829003601f168201915b505050505081565b6060600073ffffffffffffffffffffffffffffffffffffffff1660078360405161114c919061309f565b908152602001604051809103902060009054906101000a900473ffffffffffffffffffffffffffffffffffffffff1673ffffffffffffffffffffffffffffffffffffffff1614156111d4576040518060400160405280601481526020017f564f544552204e4f542052454749535445524544000000000000000000000000815250905061129e565b3373ffffffffffffffffffffffffffffffffffffffff166007836040516111fb919061309f565b908152602001604051809103902060009054906101000a900473ffffffffffffffffffffffffffffffffffffffff1673ffffffffffffffffffffffffffffffffffffffff16146112655760405180606001604052806027815260200161375160279139905061129e565b6040518060400160405280601d81526020017f564f5445522052454749535445524544205355434345535346554c4c5900000081525090505b919050565b600660169054906101000a900460ff1681565b600073ffffffffffffffffffffffffffffffffffffffff16600660009054906101000a900473ffffffffffffffffffffffffffffffffffffffff1673ffffffffffffffffffffffffffffffffffffffff161415611348576040517f08c379a000000000000000000000000000000000000000000000000000000000815260040161133f90613351565b60405180910390fd5b600660009054906101000a900473ffffffffffffffffffffffffffffffffffffffff1673ffffffffffffffffffffffffffffffffffffffff163373ffffffffffffffffffffffffffffffffffffffff16146113d8576040517f08c379a00000000000000000000000000000000000000000000000000000000081526004016113cf90613291565b60405180910390fd5b81600290805190602001906113ee9291906124e8565b5080600390805190602001906114059291906124e8565b506000600660006101000a81548173ffffffffffffffffffffffffffffffffffffffff021916908373ffffffffffffffffffffffffffffffffffffffff1602179055505050565b6005818154811061145c57600080fd5b906000526020600020906007020160009150905080600001805461147f90613652565b80601f01602080910402602001604051908101604052809291908181526020018280546114ab90613652565b80156114f85780601f106114cd576101008083540402835291602001916114f8565b820191906000526020600020905b8154815290600101906020018083116114db57829003601f168201915b50505050509080600101805461150d90613652565b80601f016020809104026020016040519081016040528092919081815260200182805461153990613652565b80156115865780601f1061155b57610100808354040283529160200191611586565b820191906000526020600020905b81548152906001019060200180831161156957829003601f168201915b50505050509080600201805461159b90613652565b80601f01602080910402602001604051908101604052809291908181526020018280546115c790613652565b80156116145780601f106115e957610100808354040283529160200191611614565b820191906000526020600020905b8154815290600101906020018083116115f757829003601f168201915b50505050509080600301805461162990613652565b80601f016020809104026020016040519081016040528092919081815260200182805461165590613652565b80156116a25780601f10611677576101008083540402835291602001916116a2565b820191906000526020600020905b81548152906001019060200180831161168557829003601f168201915b5050505050908060040180546116b790613652565b80601f01602080910402602001604051908101604052809291908181526020018280546116e390613652565b80156117305780601f1061170557610100808354040283529160200191611730565b820191906000526020600020905b81548152906001019060200180831161171357829003601f168201915b50505050509080600501805461174590613652565b80601f016020809104026020016040519081016040528092919081815260200182805461177190613652565b80156117be5780601f10611793576101008083540402835291602001916117be565b820191906000526020600020905b8154815290600101906020018083116117a157829003601f168201915b5050505050908060060154905087565b6000818051602081018201805184825260208301602085012081835280955050505050506000915054906101000a900460ff1681565b600073ffffffffffffffffffffffffffffffffffffffff16600660009054906101000a900473ffffffffffffffffffffffffffffffffffffffff1673ffffffffffffffffffffffffffffffffffffffff161415611896576040517f08c379a000000000000000000000000000000000000000000000000000000000815260040161188d90613351565b60405180910390fd5b600660009054906101000a900473ffffffffffffffffffffffffffffffffffffffff1673ffffffffffffffffffffffffffffffffffffffff163373ffffffffffffffffffffffffffffffffffffffff1614611926576040517f08c379a000000000000000000000000000000000000000000000000000000000815260040161191d906133b1565b60405180910390fd5b6000600660146101000a81548160ff0219169083151502179055506000600660156101000a81548160ff0219169083151502179055506000600660166101000a81548160ff0219169083151502179055506001600660176101000a81548160ff021916908315150217905550565b600073ffffffffffffffffffffffffffffffffffffffff16600660009054906101000a900473ffffffffffffffffffffffffffffffffffffffff1673ffffffffffffffffffffffffffffffffffffffff161415611a26576040517f08c379a0000000000000000000000000000000000000000000000000000000008152600401611a1d90613351565b60405180910390fd5b600660009054906101000a900473ffffffffffffffffffffffffffffffffffffffff1673ffffffffffffffffffffffffffffffffffffffff163373ffffffffffffffffffffffffffffffffffffffff1614611ab6576040517f08c379a0000000000000000000000000000000000000000000000000000000008152600401611aad906133b1565b60405180910390fd5b6001600660146101000a81548160ff0219169083151502179055506000600660156101000a81548160ff0219169083151502179055506000600660166101000a81548160ff0219169083151502179055506000600660176101000a81548160ff021916908315150217905550565b600073ffffffffffffffffffffffffffffffffffffffff16600660009054906101000a900473ffffffffffffffffffffffffffffffffffffffff1673ffffffffffffffffffffffffffffffffffffffff161415611bb6576040517f08c379a0000000000000000000000000000000000000000000000000000000008152600401611bad90613351565b60405180910390fd5b600660009054906101000a900473ffffffffffffffffffffffffffffffffffffffff1673ffffffffffffffffffffffffffffffffffffffff163373ffffffffffffffffffffffffffffffffffffffff1614611c46576040517f08c379a0000000000000000000000000000000000000000000000000000000008152600401611c3d906133b1565b60405180910390fd5b600660149054906101000a900460ff16611c95576040517f08c379a0000000000000000000000000000000000000000000000000000000008152600401611c8c906133d1565b60405180910390fd5b600986604051611ca5919061309f565b908152602001604051809103902060009054906101000a900460ff1615611d01576040517f08c379a0000000000000000000000000000000000000000000000000000000008152600401611cf8906133f1565b60405180910390fd5b60056040518060e00160405280888152602001878152602001868152602001858152602001848152602001838152602001600081525090806001815401808255809150506001900390600052602060002090600702016000909190919091506000820151816000019080519060200190611d7c9291906124e8565b506020820151816001019080519060200190611d999291906124e8565b506040820151816002019080519060200190611db69291906124e8565b506060820151816003019080519060200190611dd39291906124e8565b506080820151816004019080519060200190611df09291906124e8565b5060a0820151816005019080519060200190611e0d9291906124e8565b5060c0820151816006015550506001600987604051611e2c919061309f565b908152602001604051809103902060006101000a81548160ff0219169083151502179055506001600580549050611e639190613594565b600a87604051611e73919061309f565b908152602001604051809103902081905550505050505050565b600660179054906101000a900460ff1681565b600660169054906101000a900460ff16611eef576040517f08c379a0000000000000000000000000000000000000000000000000000000008152600401611ee690613251565b60405180910390fd5b600860003373ffffffffffffffffffffffffffffffffffffffff1673ffffffffffffffffffffffffffffffffffffffff16815260200190815260200160002060000160009054906101000a900460ff16611f7e576040517f08c379a0000000000000000000000000000000000000000000000000000000008152600401611f75906132d1565b60405180910390fd5b600860003373ffffffffffffffffffffffffffffffffffffffff1673ffffffffffffffffffffffffffffffffffffffff16815260200190815260200160002060000160019054906101000a900460ff161561200e576040517f08c379a000000000000000000000000000000000000000000000000000000000815260040161200590613331565b60405180910390fd5b60016005600a83604051612022919061309f565b90815260200160405180910390205481548110612068577f4e487b7100000000000000000000000000000000000000000000000000000000600052603260045260246000fd5b90600052602060002090600702016006016000828254612088919061353e565b925050819055506001600860003373ffffffffffffffffffffffffffffffffffffffff1673ffffffffffffffffffffffffffffffffffffffff16815260200190815260200160002060000160016101000a81548160ff02191690831515021790555050565b60606005805480602002602001604051908101604052809291908181526020016000905b828210156124b957838290600052602060002090600702016040518060e001604052908160008201805461214490613652565b80601f016020809104026020016040519081016040528092919081815260200182805461217090613652565b80156121bd5780601f10612192576101008083540402835291602001916121bd565b820191906000526020600020905b8154815290600101906020018083116121a057829003601f168201915b505050505081526020016001820180546121d690613652565b80601f016020809104026020016040519081016040528092919081815260200182805461220290613652565b801561224f5780601f106122245761010080835404028352916020019161224f565b820191906000526020600020905b81548152906001019060200180831161223257829003601f168201915b5050505050815260200160028201805461226890613652565b80601f016020809104026020016040519081016040528092919081815260200182805461229490613652565b80156122e15780601f106122b6576101008083540402835291602001916122e1565b820191906000526020600020905b8154815290600101906020018083116122c457829003601f168201915b505050505081526020016003820180546122fa90613652565b80601f016020809104026020016040519081016040528092919081815260200182805461232690613652565b80156123735780601f1061234857610100808354040283529160200191612373565b820191906000526020600020905b81548152906001019060200180831161235657829003601f168201915b5050505050815260200160048201805461238c90613652565b80601f01602080910402602001604051908101604052809291908181526020018280546123b890613652565b80156124055780601f106123da57610100808354040283529160200191612405565b820191906000526020600020905b8154815290600101906020018083116123e857829003601f168201915b5050505050815260200160058201805461241e90613652565b80601f016020809104026020016040519081016040528092919081815260200182805461244a90613652565b80156124975780601f1061246c57610100808354040283529160200191612497565b820191906000526020600020905b81548152906001019060200180831161247a57829003601f168201915b5050505050815260200160068201548152505081526020019060010190612111565b50505050905090565b600660009054906101000a900473ffffffffffffffffffffffffffffffffffffffff1681565b8280546124f490613652565b90600052602060002090601f016020900481019282612516576000855561255d565b82601f1061252f57805160ff191683800117855561255d565b8280016001018555821561255d579182015b8281111561255c578251825591602001919060010190612541565b5b50905061256a919061256e565b5090565b5b8082111561258757600081600090555060010161256f565b5090565b600061259e6125998461347d565b61344c565b9050828152602081018484840111156125b657600080fd5b6125c1848285613610565b509392505050565b6000813590506125d881613722565b92915050565b600082601f8301126125ef57600080fd5b81356125ff84826020860161258b565b91505092915050565b60008135905061261781613739565b92915050565b60006020828403121561262f57600080fd5b600061263d848285016125c9565b91505092915050565b60006020828403121561265857600080fd5b600082013567ffffffffffffffff81111561267257600080fd5b61267e848285016125de565b91505092915050565b6000806040838503121561269a57600080fd5b600083013567ffffffffffffffff8111156126b457600080fd5b6126c0858286016125de565b925050602083013567ffffffffffffffff8111156126dd57600080fd5b6126e9858286016125de565b9150509250929050565b600080600080600060a0868803121561270b57600080fd5b600086013567ffffffffffffffff81111561272557600080fd5b612731888289016125de565b955050602086013567ffffffffffffffff81111561274e57600080fd5b61275a888289016125de565b945050604086013567ffffffffffffffff81111561277757600080fd5b612783888289016125de565b935050606086013567ffffffffffffffff8111156127a057600080fd5b6127ac888289016125de565b925050608086013567ffffffffffffffff8111156127c957600080fd5b6127d5888289016125de565b9150509295509295909350565b60008060008060008060c087890312156127fb57600080fd5b600087013567ffffffffffffffff81111561281557600080fd5b61282189828a016125de565b965050602087013567ffffffffffffffff81111561283e57600080fd5b61284a89828a016125de565b955050604087013567ffffffffffffffff81111561286757600080fd5b61287389828a016125de565b945050606087013567ffffffffffffffff81111561289057600080fd5b61289c89828a016125de565b935050608087013567ffffffffffffffff8111156128b957600080fd5b6128c589828a016125de565b92505060a087013567ffffffffffffffff8111156128e257600080fd5b6128ee89828a016125de565b9150509295509295509295565b60006020828403121561290d57600080fd5b600061291b84828501612608565b91505092915050565b60006129308383612fab565b905092915050565b612941816135c8565b82525050565b6000612952826134d2565b61295c81856134f5565b93508360208202850161296e856134ad565b8060005b858110156129aa578484038952815161298b8582612924565b9450612996836134e8565b925060208a01995050600181019050612972565b50829750879550505050505092915050565b6129c5816135da565b82525050565b600081546129d881613652565b6129e28186613506565b945060018216600081146129fd5760018114612a0e57612a41565b60ff19831686528186019350612a41565b612a17856134bd565b60005b83811015612a3957815481890152600182019150602081019050612a1a565b838801955050505b50505092915050565b6000612a55826134dd565b612a5f8185613511565b9350612a6f81856020860161361f565b612a7881613711565b840191505092915050565b6000612a8e826134dd565b612a988185613522565b9350612aa881856020860161361f565b612ab181613711565b840191505092915050565b6000612ac7826134dd565b612ad18185613533565b9350612ae181856020860161361f565b80840191505092915050565b6000612afa602883613522565b91507f436869656620616c726561647920736574207769746820646966666572656e7460008301527f20616464726573730000000000000000000000000000000000000000000000006020830152604082019050919050565b6000612b60600d83613522565b91507f566f74696e6720436c6f736564000000000000000000000000000000000000006000830152602082019050919050565b6000612ba0602b83613522565b91507f566f74657220416c72656164792052656769737465726564207769746820746860008301527f6573652044657461696c730000000000000000000000000000000000000000006020830152604082019050919050565b6000612c06602a83613522565b91507f596f752068617665206e6f2072696768747320746f206368616e67652074686560008301527f73652064657461696c73000000000000000000000000000000000000000000006020830152604082019050919050565b6000612c6c601683613522565b91507f494420616c7265616479207265676973746572656421000000000000000000006000830152602082019050919050565b6000612cac601483613522565b91507f566f746572206e6f7420526567697374657265640000000000000000000000006000830152602082019050919050565b6000612cec601983613522565b91507f566f74657220526567697374726174696f6e20436c6f736564000000000000006000830152602082019050919050565b6000612d2c600e83613522565b91507f456e7465722076616c69642049640000000000000000000000000000000000006000830152602082019050919050565b6000612d6c601383613522565b91507f566f74657220616c726561647920566f746564000000000000000000000000006000830152602082019050919050565b6000612dac600f83613522565b91507f53657420436869656620466972737400000000000000000000000000000000006000830152602082019050919050565b6000612dec601b83613522565b91507f4161646861617220616c726561647920726567697374657265642100000000006000830152602082019050919050565b6000612e2c601383613522565b91507f456e7465722076616c69642041616468616172000000000000000000000000006000830152602082019050919050565b6000612e6c602b83613522565b91507f4f6e6c7920656c656374696f6e2063686965662063616e20706572666f726d2060008301527f7468697320616374696f6e0000000000000000000000000000000000000000006020830152604082019050919050565b6000612ed2601d83613522565b91507f43616e64696461746520526567697374726174696f6e20436c6f7365640000006000830152602082019050919050565b6000612f12601f83613522565b91507f43616e64696461746520494420416c72656164792052656769737465726564006000830152602082019050919050565b6000612f52602a83613522565b91507f566f74657220416c72656164792052656769737465726564207769746820746860008301527f69732041646472657373000000000000000000000000000000000000000000006020830152604082019050919050565b600060e0830160008301518482036000860152612fc88282612a4a565b91505060208301518482036020860152612fe28282612a4a565b91505060408301518482036040860152612ffc8282612a4a565b915050606083015184820360608601526130168282612a4a565b915050608083015184820360808601526130308282612a4a565b91505060a083015184820360a086015261304a8282612a4a565b91505060c083015161305f60c086018261306a565b508091505092915050565b61307381613606565b82525050565b61308281613606565b82525050565b600061309482846129cb565b915081905092915050565b60006130ab8284612abc565b915081905092915050565b60006020820190506130cb6000830184612938565b92915050565b600060208201905081810360008301526130eb8184612947565b905092915050565b600060208201905061310860008301846129bc565b92915050565b600060a08201905061312360008301886129bc565b61313060208301876129bc565b81810360408301526131428186612a83565b905081810360608301526131568185612a83565b9050818103608083015261316a8184612a83565b90509695505050505050565b600060208201905081810360008301526131908184612a83565b905092915050565b600060e08201905081810360008301526131b2818a612a83565b905081810360208301526131c68189612a83565b905081810360408301526131da8188612a83565b905081810360608301526131ee8187612a83565b905081810360808301526132028186612a83565b905081810360a08301526132168185612a83565b905061322560c0830184613079565b98975050505050505050565b6000602082019050818103600083015261324a81612aed565b9050919050565b6000602082019050818103600083015261326a81612b53565b9050919050565b6000602082019050818103600083015261328a81612b93565b9050919050565b600060208201905081810360008301526132aa81612bf9565b9050919050565b600060208201905081810360008301526132ca81612c5f565b9050919050565b600060208201905081810360008301526132ea81612c9f565b9050919050565b6000602082019050818103600083015261330a81612cdf565b9050919050565b6000602082019050818103600083015261332a81612d1f565b9050919050565b6000602082019050818103600083015261334a81612d5f565b9050919050565b6000602082019050818103600083015261336a81612d9f565b9050919050565b6000602082019050818103600083015261338a81612ddf565b9050919050565b600060208201905081810360008301526133aa81612e1f565b9050919050565b600060208201905081810360008301526133ca81612e5f565b9050919050565b600060208201905081810360008301526133ea81612ec5565b9050919050565b6000602082019050818103600083015261340a81612f05565b9050919050565b6000602082019050818103600083015261342a81612f45565b9050919050565b60006020820190506134466000830184613079565b92915050565b6000604051905081810181811067ffffffffffffffff82111715613473576134726136e2565b5b8060405250919050565b600067ffffffffffffffff821115613498576134976136e2565b5b601f19601f8301169050602081019050919050565b6000819050602082019050919050565b60008190508160005260206000209050919050565b600081519050919050565b600081519050919050565b6000602082019050919050565b600082825260208201905092915050565b600081905092915050565b600082825260208201905092915050565b600082825260208201905092915050565b600081905092915050565b600061354982613606565b915061355483613606565b9250827fffffffffffffffffffffffffffffffffffffffffffffffffffffffffffffffff0382111561358957613588613684565b5b828201905092915050565b600061359f82613606565b91506135aa83613606565b9250828210156135bd576135bc613684565b5b828203905092915050565b60006135d3826135e6565b9050919050565b60008115159050919050565b600073ffffffffffffffffffffffffffffffffffffffff82169050919050565b6000819050919050565b82818337600083830152505050565b60005b8381101561363d578082015181840152602081019050613622565b8381111561364c576000848401525b50505050565b6000600282049050600182168061366a57607f821691505b6020821081141561367e5761367d6136b3565b5b50919050565b7f4e487b7100000000000000000000000000000000000000000000000000000000600052601160045260246000fd5b7f4e487b7100000000000000000000000000000000000000000000000000000000600052602260045260246000fd5b7f4e487b7100000000000000000000000000000000000000000000000000000000600052604160045260246000fd5b6000601f19601f8301169050919050565b61372b816135c8565b811461373657600080fd5b50565b61374281613606565b811461374d57600080fd5b5056fe564f5445522052454749535445524544205749544820444946464552454e542041444452455353a264697066735822122070b13aeba38535eefee6afa30272da0327df09d081fcc32769e7bdc300b1524464736f6c63430008000033",
  "immutableReferences": {},
  "source": "// SPDX-License-Identifier: MIT\r\npragma solidity ^0.8.0;\r\n\r\ncontract SafeVote {\r\n    // Variable Declaration\r\n    struct Voter{\r\n        bool isRegistered;\r\n        bool hasVoted;\r\n        string district;\r\n        string state;\r\n        string hash;\r\n    }\r\n    struct Candidate{\r\n        string id;\r\n        string name;\r\n        string age;\r\n        string partyName;\r\n        string district;\r\n        string state;\r\n        uint voteCount;\r\n    }\r\n    // struct registerAadhaar{\r\n    //     bool registered;\r\n    // }\r\n    // struct registerID{\r\n    //     bool registered;\r\n    // }\r\n    mapping (string => bool) public registerAadhaar;\r\n    mapping (string => bool) public registerID;\r\n    string public chiefAadhaar=\"830676380906\";\r\n    string public chiefID=\"RJZ2607539\";\r\n    Voter[] voterList;\r\n    Candidate[] public candidateList;\r\n    address public chief;\r\n    bool candidateRegistrationOpen;\r\n    bool voterRegistrationOpen;\r\n    bool public votingOpen;\r\n    bool public resultViewOpen;\r\n    mapping (string => address) public voterAddressMap;\r\n    mapping (address => Voter) public voterDetailsMap;\r\n    mapping (string => bool) public candidateRegister;\r\n    mapping (string => uint) public candidateIdIndMap;\r\n\r\n    // Modifiers\r\n    modifier onlyElectionChief(){\r\n        require((msg.sender==chief),\"Only election chief can perform this action\");\r\n        _;\r\n    }\r\n    modifier duringCandidateRegistration(){\r\n        require(candidateRegistrationOpen,\"Candidate Registration Closed\");\r\n        _;\r\n    }\r\n    modifier duringVoterRegistration(){\r\n        require(voterRegistrationOpen,\"Voter Registration Closed\");\r\n        _;\r\n    }\r\n    modifier duringVoting(){\r\n        require(votingOpen,\"Voting Closed\");\r\n        _;\r\n    }\r\n    modifier duringResultView(){\r\n        require(resultViewOpen,\"Result Viewing Closed\");\r\n        _;\r\n    }\r\n    modifier ifChief(){\r\n        require(chief!=address(0),\"Set Chief First\");\r\n        _;\r\n    }\r\n    modifier aadhaarValidation(string memory aadhaar){\r\n        require(keccak256(bytes(aadhaar))==keccak256(bytes(chiefAadhaar)),\"Enter valid Aadhaar\");\r\n        _;\r\n    }\r\n    modifier idValidation(string memory id){\r\n        require(keccak256(bytes(id))==keccak256(bytes(chiefID)),\"Enter valid Id\");\r\n        _;\r\n    }\r\n    modifier checkChief(){\r\n        require(msg.sender==chief,\"You have no rights to change these details\");\r\n        _;\r\n    }\r\n    modifier isAadhaarRegistered(string memory aadhaar){\r\n        require(!registerAadhaar[aadhaar], \"Aadhaar already registered!\");\r\n        _;\r\n    }\r\n    modifier isIdRegistered(string memory id){\r\n        require(!registerID[id], \"ID already registered!\");\r\n        _;\r\n    }\r\n\r\n    // Functions\r\n    function setChief(string memory aadhaar, string memory id) public aadhaarValidation(aadhaar) idValidation(id) {\r\n        require(chief==address(0),\"Chief already set with different address\");\r\n        chief=msg.sender;\r\n    }\r\n    function updateDetails(string memory aadhaar, string memory id) public ifChief checkChief {\r\n        chiefAadhaar=aadhaar;\r\n        chiefID=id;\r\n        chief=address(0);\r\n    }\r\n    // function resetChief() public {\r\n    //     chief = address(0);\r\n    // }\r\n    function setCandidateRegistration() public ifChief onlyElectionChief{\r\n        candidateRegistrationOpen=true;\r\n        voterRegistrationOpen=false;\r\n        votingOpen=false;\r\n        resultViewOpen=false;\r\n    }\r\n    function setVoterRegistration() public ifChief onlyElectionChief{\r\n        candidateRegistrationOpen=false;\r\n        voterRegistrationOpen=true;\r\n        votingOpen=false;\r\n        resultViewOpen=false;\r\n    }\r\n    function setVoting() public ifChief onlyElectionChief{\r\n        candidateRegistrationOpen=false;\r\n        voterRegistrationOpen=false;\r\n        votingOpen=true;\r\n        resultViewOpen=false;\r\n    }\r\n    function setResultView() public ifChief onlyElectionChief{\r\n        candidateRegistrationOpen=false;\r\n        voterRegistrationOpen=false;\r\n        votingOpen=false;\r\n        resultViewOpen=true;\r\n    }\r\n    function registerCandidate(string memory id,string memory name, string memory age, string memory partyName, string memory district, string memory state) public ifChief onlyElectionChief duringCandidateRegistration{\r\n        require(!candidateRegister[id],\"Candidate ID Already Registered\");\r\n        candidateList.push(Candidate(id, name, age, partyName, district, state, 0));\r\n        candidateRegister[id]=true;\r\n        candidateIdIndMap[id]=candidateList.length-1;\r\n    }\r\n    function registerVoter(string memory hash, string memory district, string memory state, string memory aadhaar, string memory id) public duringVoterRegistration isAadhaarRegistered(aadhaar) isIdRegistered(id){\r\n        require(voterAddressMap[hash]==address(0),\"Voter Already Registered with these Details\");\r\n        require(!voterDetailsMap[msg.sender].isRegistered,\"Voter Already Registered with this Address\");\r\n        registerAadhaar[aadhaar]=true;\r\n        registerID[id]=true;\r\n        voterAddressMap[hash]=msg.sender;\r\n        voterDetailsMap[msg.sender]=Voter(true,false,district,state,hash);\r\n    }\r\n    function checkRegister(string memory hash) public view returns (string memory){\r\n        if(voterAddressMap[hash] == address(0)){\r\n            return \"VOTER NOT REGISTERED\";\r\n        }\r\n        else if(voterAddressMap[hash] != msg.sender){\r\n            return \"VOTER REGISTERED WITH DIFFERENT ADDRESS\";\r\n        }\r\n        else{\r\n            return \"VOTER REGISTERED SUCCESSFULLY\";\r\n        }\r\n    }\r\n    function vote(string memory id) public duringVoting{\r\n        require(voterDetailsMap[msg.sender].isRegistered, \"Voter not Registered\");\r\n        require(!voterDetailsMap[msg.sender].hasVoted,\"Voter already Voted\");\r\n        candidateList[candidateIdIndMap[id]].voteCount+=1;\r\n        voterDetailsMap[msg.sender].hasVoted=true;\r\n    }\r\n    function getCandidateList() public view returns (Candidate[] memory){\r\n        return candidateList;\r\n    }\r\n}",
  "sourcePath": "D:\\SRU\\4th_Yr_2nd_Sem\\Testing_Env\\vir_env\\Final\\contracts\\SafeVote.sol",
  "compiler": {
    "name": "solc",
    "version": "0.8.0+commit.c7dfd78e.Emscripten.clang"
  },
  "schemaVersion": "3.4.16",
  "updatedAt": "2025-03-12T20:02:46.341Z",
  "networkType": "ethereum",
  "devdoc": {
    "kind": "dev",
    "methods": {},
    "version": 1
  },
  "userdoc": {
    "kind": "user",
    "methods": {},
    "version": 1
  }
}